{
  "address": "0x6D413220ba11A964dC92a9bC825119EEe79682E2",
  "abi": [
    {
      "inputs": [],
      "stateMutability": "nonpayable",
      "type": "constructor"
    },
    {
      "inputs": [],
      "name": "AllMagiciansMinted",
      "type": "error"
    },
    {
      "inputs": [],
      "name": "Fail2SendETH",
      "type": "error"
    },
    {
      "inputs": [],
      "name": "NotEnoughETH",
      "type": "error"
    },
    {
      "anonymous": false,
      "inputs": [
        {
          "indexed": true,
          "internalType": "address",
          "name": "owner",
          "type": "address"
        },
        {
          "indexed": true,
          "internalType": "address",
          "name": "approved",
          "type": "address"
        },
        {
          "indexed": true,
          "internalType": "uint256",
          "name": "tokenId",
          "type": "uint256"
        }
      ],
      "name": "Approval",
      "type": "event"
    },
    {
      "anonymous": false,
      "inputs": [
        {
          "indexed": true,
          "internalType": "address",
          "name": "owner",
          "type": "address"
        },
        {
          "indexed": true,
          "internalType": "address",
          "name": "operator",
          "type": "address"
        },
        {
          "indexed": false,
          "internalType": "bool",
          "name": "approved",
          "type": "bool"
        }
      ],
      "name": "ApprovalForAll",
      "type": "event"
    },
    {
      "anonymous": false,
      "inputs": [
        {
          "indexed": true,
          "internalType": "address",
          "name": "previousOwner",
          "type": "address"
        },
        {
          "indexed": true,
          "internalType": "address",
          "name": "newOwner",
          "type": "address"
        }
      ],
      "name": "OwnershipTransferred",
      "type": "event"
    },
    {
      "anonymous": false,
      "inputs": [
        {
          "indexed": true,
          "internalType": "address",
          "name": "from",
          "type": "address"
        },
        {
          "indexed": true,
          "internalType": "address",
          "name": "to",
          "type": "address"
        },
        {
          "indexed": true,
          "internalType": "uint256",
          "name": "tokenId",
          "type": "uint256"
        }
      ],
      "name": "Transfer",
      "type": "event"
    },
    {
      "anonymous": false,
      "inputs": [
        {
          "indexed": false,
          "internalType": "address",
          "name": "owner",
          "type": "address"
        },
        {
          "indexed": false,
          "internalType": "uint256",
          "name": "id",
          "type": "uint256"
        }
      ],
      "name": "minted",
      "type": "event"
    },
    {
      "inputs": [],
      "name": "MINT_FEE",
      "outputs": [
        {
          "internalType": "uint256",
          "name": "",
          "type": "uint256"
        }
      ],
      "stateMutability": "view",
      "type": "function"
    },
    {
      "inputs": [
        {
          "internalType": "address",
          "name": "to",
          "type": "address"
        },
        {
          "internalType": "uint256",
          "name": "tokenId",
          "type": "uint256"
        }
      ],
      "name": "approve",
      "outputs": [],
      "stateMutability": "nonpayable",
      "type": "function"
    },
    {
      "inputs": [
        {
          "internalType": "address",
          "name": "owner",
          "type": "address"
        }
      ],
      "name": "balanceOf",
      "outputs": [
        {
          "internalType": "uint256",
          "name": "",
          "type": "uint256"
        }
      ],
      "stateMutability": "view",
      "type": "function"
    },
    {
      "inputs": [],
      "name": "buidlGuidl",
      "outputs": [
        {
          "internalType": "address payable",
          "name": "",
          "type": "address"
        }
      ],
      "stateMutability": "view",
      "type": "function"
    },
    {
      "inputs": [
        {
          "internalType": "uint256",
          "name": "tokenId",
          "type": "uint256"
        }
      ],
      "name": "getApproved",
      "outputs": [
        {
          "internalType": "address",
          "name": "",
          "type": "address"
        }
      ],
      "stateMutability": "view",
      "type": "function"
    },
    {
      "inputs": [
        {
          "internalType": "address",
          "name": "owner",
          "type": "address"
        },
        {
          "internalType": "address",
          "name": "operator",
          "type": "address"
        }
      ],
      "name": "isApprovedForAll",
      "outputs": [
        {
          "internalType": "bool",
          "name": "",
          "type": "bool"
        }
      ],
      "stateMutability": "view",
      "type": "function"
    },
    {
      "inputs": [],
      "name": "mintItem",
      "outputs": [
        {
          "internalType": "uint256",
          "name": "",
          "type": "uint256"
        }
      ],
      "stateMutability": "payable",
      "type": "function"
    },
    {
      "inputs": [],
      "name": "mintTen",
      "outputs": [
        {
          "internalType": "uint256[10]",
          "name": "",
          "type": "uint256[10]"
        }
      ],
      "stateMutability": "payable",
      "type": "function"
    },
    {
      "inputs": [],
      "name": "mintThree",
      "outputs": [
        {
          "internalType": "uint256[3]",
          "name": "",
          "type": "uint256[3]"
        }
      ],
      "stateMutability": "payable",
      "type": "function"
    },
    {
      "inputs": [],
      "name": "molochHealth",
      "outputs": [
        {
          "internalType": "uint256",
          "name": "",
          "type": "uint256"
        }
      ],
      "stateMutability": "view",
      "type": "function"
    },
    {
      "inputs": [],
      "name": "name",
      "outputs": [
        {
          "internalType": "string",
          "name": "",
          "type": "string"
        }
      ],
      "stateMutability": "view",
      "type": "function"
    },
    {
      "inputs": [],
      "name": "owner",
      "outputs": [
        {
          "internalType": "address",
          "name": "",
          "type": "address"
        }
      ],
      "stateMutability": "view",
      "type": "function"
    },
    {
      "inputs": [
        {
          "internalType": "uint256",
          "name": "tokenId",
          "type": "uint256"
        }
      ],
      "name": "ownerOf",
      "outputs": [
        {
          "internalType": "address",
          "name": "",
          "type": "address"
        }
      ],
      "stateMutability": "view",
      "type": "function"
    },
    {
      "inputs": [
        {
          "internalType": "uint256",
          "name": "",
          "type": "uint256"
        }
      ],
      "name": "protocolColor",
      "outputs": [
        {
          "internalType": "bytes3",
          "name": "",
          "type": "bytes3"
        }
      ],
      "stateMutability": "view",
      "type": "function"
    },
    {
      "inputs": [
        {
          "internalType": "uint256",
          "name": "",
          "type": "uint256"
        }
      ],
      "name": "protocolInfo",
      "outputs": [
        {
          "internalType": "uint8",
          "name": "",
          "type": "uint8"
        }
      ],
      "stateMutability": "view",
      "type": "function"
    },
    {
      "inputs": [
        {
          "internalType": "uint256",
          "name": "",
          "type": "uint256"
        }
      ],
      "name": "protocols",
      "outputs": [
        {
          "internalType": "string",
          "name": "",
          "type": "string"
        }
      ],
      "stateMutability": "view",
      "type": "function"
    },
    {
      "inputs": [
        {
          "internalType": "uint256",
          "name": "id",
          "type": "uint256"
        }
      ],
      "name": "renderTokenById",
      "outputs": [
        {
          "internalType": "string",
          "name": "",
          "type": "string"
        }
      ],
      "stateMutability": "view",
      "type": "function"
    },
    {
      "inputs": [],
      "name": "renounceOwnership",
      "outputs": [],
      "stateMutability": "nonpayable",
      "type": "function"
    },
    {
      "inputs": [
        {
          "internalType": "address",
          "name": "from",
          "type": "address"
        },
        {
          "internalType": "address",
          "name": "to",
          "type": "address"
        },
        {
          "internalType": "uint256",
          "name": "tokenId",
          "type": "uint256"
        }
      ],
      "name": "safeTransferFrom",
      "outputs": [],
      "stateMutability": "nonpayable",
      "type": "function"
    },
    {
      "inputs": [
        {
          "internalType": "address",
          "name": "from",
          "type": "address"
        },
        {
          "internalType": "address",
          "name": "to",
          "type": "address"
        },
        {
          "internalType": "uint256",
          "name": "tokenId",
          "type": "uint256"
        },
        {
          "internalType": "bytes",
          "name": "data",
          "type": "bytes"
        }
      ],
      "name": "safeTransferFrom",
      "outputs": [],
      "stateMutability": "nonpayable",
      "type": "function"
    },
    {
      "inputs": [
        {
          "internalType": "address",
          "name": "operator",
          "type": "address"
        },
        {
          "internalType": "bool",
          "name": "approved",
          "type": "bool"
        }
      ],
      "name": "setApprovalForAll",
      "outputs": [],
      "stateMutability": "nonpayable",
      "type": "function"
    },
    {
      "inputs": [
        {
          "internalType": "bytes4",
          "name": "interfaceId",
          "type": "bytes4"
        }
      ],
      "name": "supportsInterface",
      "outputs": [
        {
          "internalType": "bool",
          "name": "",
          "type": "bool"
        }
      ],
      "stateMutability": "view",
      "type": "function"
    },
    {
      "inputs": [],
      "name": "symbol",
      "outputs": [
        {
          "internalType": "string",
          "name": "",
          "type": "string"
        }
      ],
      "stateMutability": "view",
      "type": "function"
    },
    {
      "inputs": [
        {
          "internalType": "uint256",
          "name": "id",
          "type": "uint256"
        }
      ],
      "name": "tokenURI",
      "outputs": [
        {
          "internalType": "string",
          "name": "",
          "type": "string"
        }
      ],
      "stateMutability": "view",
      "type": "function"
    },
    {
      "inputs": [
        {
          "internalType": "address",
          "name": "from",
          "type": "address"
        },
        {
          "internalType": "address",
          "name": "to",
          "type": "address"
        },
        {
          "internalType": "uint256",
          "name": "tokenId",
          "type": "uint256"
        }
      ],
      "name": "transferFrom",
      "outputs": [],
      "stateMutability": "nonpayable",
      "type": "function"
    },
    {
      "inputs": [
        {
          "internalType": "address",
          "name": "newOwner",
          "type": "address"
        }
      ],
      "name": "transferOwnership",
      "outputs": [],
      "stateMutability": "nonpayable",
      "type": "function"
    },
    {
      "inputs": [],
      "name": "wildanvin",
      "outputs": [
        {
          "internalType": "address payable",
          "name": "",
          "type": "address"
        }
      ],
      "stateMutability": "view",
      "type": "function"
    }
  ],
  "transactionHash": "0x5d8762145558cc1386887d0a28fe401c670d6a9d5e46077a47a4a5b278d2e6a4",
  "args": [],
  "numDeployments": 1,
  "solcInputHash": "c3457ecbc5b7f00604565f08dd000abf",
  "bytecode": "0x608060405234620006965762000014620006bc565b600e81526d426c6f636b4d6167696369616e7360901b602082015262000039620006bc565b6002815261424d60f01b602082015281516001600160401b038111620004e85762000066600054620006dc565b601f811162000655575b50602092601f8211600114620005df5792819293600092620005d3575b50508160011b916000199060031b1c1916176000555b80516001600160401b038111620004e857620000c1600154620006dc565b601f811162000574575b50602091601f82116001146200050a57918192600092620004fe575b50508160011b916000199060031b1c1916176001555b60068054336001600160a01b0319821681179092556001600160a01b03167f8be0079c531659141344cd1fd0a4f28419497f9722a3daafe3b4186f6b6457e0600080a36200014a6200069b565b62000154620006bc565b60048152634261736560e01b6020820152815262000171620006bc565b60078152662134ba31b7b4b760c91b6020820152602082015262000194620006bc565b600481526343656c6f60e01b60208201526040820152620001b4620006bc565b6008815267457468657265756d60c01b60208201526060820152620001d8620006bc565b600781526623b4ba31b7b4b760c91b60208201526080820152620001fb620006bc565b60068152654b6c65726f7360d01b602082015260a08201526200021d620006bc565b60068152654d6f6e65726f60d01b602082015260c08201526200023f620006bc565b60088152674f7074696d69736d60c01b602082015260e082015262000263620006bc565b6003815262554d4160e81b602082015261010082015262000283620006bc565b60078152660556e69737761760cc1b60208201526101208201526008906000905b600a8210620003b657620002b76200069b565b622a68ff60e81b8152623d650d60ea1b602082015262f8ee5160e81b60408201526211111160eb1b60608201526239f17160e91b608082015262269cbf60ea1b60a08201526278341960e91b60c08201527fff0000000000000000000000000000000000000000000000000000000000000060e082015262dd494960e81b61010082015262733e7f60e91b61012082015260005b600181106200036a576103e86013556040516152eb9081620007338239f35b6000805b600a811062000386575060128201556001016200034b565b60016020859382965160e81c908460030260031b62ffffff811b9283911b1691191617930191019093506200036e565b80518051906001600160401b038211620004e857620003d68554620006dc565b601f8111620004a6575b50602090601f83116001146200043157928260019493602093869560009262000425575b5050600019600383901b1c191690841b1786555b01930191019091620002a4565b01519050388062000404565b908560005260206000209160005b601f19851681106200048d575083602093600196938796938794601f1981161062000473575b505050811b01865562000418565b015160001960f88460031b161c1916905538808062000465565b828201518455600190930192602092830192016200043f565b620004d6908660005260206000206005601f8601811c82019260208710620004dd575b601f01901c019062000719565b38620003e0565b9192508291620004c9565b634e487b7160e01b600052604160045260246000fd5b015190503880620000e7565b601f19821692600160005260206000209160005b8581106200055b5750836001951062000541575b505050811b01600155620000fd565b015160001960f88460031b161c1916905538808062000532565b919260206001819286850151815501940192016200051e565b6001600052620005c1907fb10e2d527612073b26eecdfd717e6a320cf44b4afac2b0732d9fcbe2b7fa0cf6601f840160051c81019160208510620005c8575b601f0160051c019062000719565b38620000cb565b9091508190620005b3565b0151905038806200008d565b6000808052601f1983169460008051602062005a1e8339815191529290915b8681106200063c575083600195961062000622575b505050811b01600055620000a3565b015160001960f88460031b161c1916905538808062000613565b91926020600181928685015181550194019201620005fe565b600080526200068f9060008051602062005a1e833981519152601f840160051c81019160208510620005c857601f0160051c019062000719565b3862000070565b600080fd5b6040519061014082016001600160401b03811183821017620004e857604052565b60408051919082016001600160401b03811183821017620004e857604052565b90600182811c921680156200070e575b6020831014620006f857565b634e487b7160e01b600052602260045260246000fd5b91607f1691620006ec565b81811062000725575050565b600081556001016200071956fe60806040526004361015610013575b600080fd5b60003560e01c806301ffc9a71461022f57806306fdde0314610226578063081812fc1461021d578063095ea7b3146102145780630acc8ff01461020b57806323b872dd146102025780632857b3a8146101f957806342842e0e146101f057806348686648146101e75780635aa9e2a8146101de5780636352211e146101d557806370a08231146101cc578063715018a6146101c35780638c396220146101ba5780638da5cb5b146101b157806395d89b41146101a8578063a22cb4651461019f578063a2d6c6da14610196578063b88d4fde1461018d578063c0335ea914610184578063c87b56dd1461017b578063d7bf81a314610172578063e8ada04b14610169578063e94dc32b14610160578063e985e9c514610157578063eb93406b1461014e5763f2fde38b1461014657600080fd5b61000e611331565b5061000e6112a1565b5061000e611243565b5061000e611213565b5061000e6111e3565b5061000e6111c0565b5061000e610e1f565b5061000e610d54565b5061000e610c9b565b5061000e610c3c565b5061000e610b4f565b5061000e610aa9565b5061000e610a7f565b5061000e6109c1565b5061000e6108a6565b5061000e610804565b5061000e6107e5565b5061000e6106d8565b5061000e61067a565b5061000e610632565b5061000e6105ea565b5061000e610581565b5061000e61052d565b5061000e610456565b5061000e6103f9565b5061000e610315565b5061000e61024a565b6001600160e01b031981160361000e57565b503461000e57602036600319011261000e57602060043561026a81610238565b63ffffffff60e01b166380ac58cd60e01b81149081156102a8575b8115610297575b506040519015158152f35b6301ffc9a760e01b1490503861028c565b635b5e139f60e01b81149150610285565b60005b8381106102cc5750506000910152565b81810151838201526020016102bc565b906020916102f5815180928185528580860191016102b9565b601f01601f1916010190565b9060206103129281815201906102dc565b90565b503461000e576000806003193601126103f6576040519080805461033881610925565b808552916001918083169081156103cc5750600114610372575b61036e856103628187038261099f565b60405191829182610301565b0390f35b80809450527f290decd9548b62a8d60345a988386fc84ba6bc95484008f6362f93160ef3e5635b8284106103b45750505081016020016103628261036e610352565b80546020858701810191909152909301928101610399565b86955061036e9693506020925061036294915060ff191682840152151560051b8201019293610352565b80fd5b503461000e57602036600319011261000e57602061041860043561152f565b6040516001600160a01b039091168152f35b600435906001600160a01b038216820361000e57565b602435906001600160a01b038216820361000e57565b503461000e57604036600319011261000e5761047061042a565b60243561047c8161149a565b916001600160a01b0380841690821681146104de576104ae936104a99133149081156104b0575b506114bd565b6118d7565b005b6001600160a01b0316600090815260056020908152604080832033845290915290205460ff169050386104a3565b60405162461bcd60e51b815260206004820152602160248201527f4552433732313a20617070726f76616c20746f2063757272656e74206f776e656044820152603960f91b6064820152608490fd5b503461000e57600036600319011261000e576020601354604051908152f35b606090600319011261000e576001600160a01b0390600435828116810361000e5791602435908116810361000e579060443590565b503461000e576104ae6105933661054c565b916105a66105a1843361169c565b61156d565b61176e565b50634e487b7160e01b600052603260045260246000fd5b90600a8210156105dd575b6003600a80840460120193060290565b6105e56105ab565b6105cd565b503461000e57602036600319011261000e57600435600a81101561000e5780600a602092046012015490604051916003600a62ffffff60e81b93060260031b1c60e81b168152f35b503461000e576104ae6106443661054c565b90604051926020840184811067ffffffffffffffff82111761066d575b60405260008452611601565b61067561095f565b610661565b503461000e57600036600319011261000e576020604051734b2b0d5ee2857ff41b40e3820cdfac8a9ca60d9f8152f35b6060810192916000915b600383106106c157505050565b6001908251815260208091019201920191906106b4565b506000806003193601126103f6576106ee611e36565b50660aa87bee53800034106107d35760039081601354106107c157610711611e36565b91815b8181106107965750503460011c8180808084734b2b0d5ee2857ff41b40e3820cdfac8a9ca60d9f5af1610745611981565b501561078457818080927397843608a00e2bbc75ab0c1911387e002565dede5af161076e611981565b50156107845761036e90604051918291826106aa565b604051635e4dfcbf60e11b8152600490fd5b806107ac6107a66107bc93611ec7565b33611bb6565b6107b68287611ef1565b52611eab565b610714565b60405163c49e456f60e01b8152600490fd5b604051632c1d501360e11b8152600490fd5b503461000e57602036600319011261000e57602061041860043561149a565b503461000e57602036600319011261000e576001600160a01b0361082661042a565b16801561084f57600052600360205261036e604060002054604051918291829190602083019252565b60405162461bcd60e51b815260206004820152602960248201527f4552433732313a2061646472657373207a65726f206973206e6f7420612076616044820152683634b21037bbb732b960b91b6064820152608490fd5b503461000e576000806003193601126103f6576108c16113f6565b600680546001600160a01b0319811690915581906001600160a01b03167f8be0079c531659141344cd1fd0a4f28419497f9722a3daafe3b4186f6b6457e08280a380f35b600a811015610918575b60080190600090565b6109206105ab565b61090f565b90600182811c92168015610955575b602083101461093f57565b634e487b7160e01b600052602260045260246000fd5b91607f1691610934565b50634e487b7160e01b600052604160045260246000fd5b6060810190811067ffffffffffffffff82111761099257604052565b61099a61095f565b604052565b90601f8019910116810190811067ffffffffffffffff82111761099257604052565b503461000e5760208060031936011261000e57600435600a81101561000e57600801906040519060009280546109f681610925565b80855291600191808316908115610a5d5750600114610a20575b61036e856103628189038261099f565b6000908152838120939550925b828410610a4a575050508161036e93610362928201019338610a10565b8054858501870152928501928101610a2d565b60ff191686860152505050151560051b82010191506103628161036e38610a10565b503461000e57600036600319011261000e576006546040516001600160a01b039091168152602090f35b503461000e576000806003193601126103f65760405190806001805491610acf83610925565b808652928281169081156103cc5750600114610af55761036e856103628187038261099f565b92508083527fb10e2d527612073b26eecdfd717e6a320cf44b4afac2b0732d9fcbe2b7fa0cf65b828410610b375750505081016020016103628261036e610352565b80546020858701810191909152909301928101610b1c565b503461000e57604036600319011261000e57610b6961042a565b602435801515810361000e576001600160a01b03821691338314610bf75781610bb4610bc59233600052600560205260406000209060018060a01b0316600052602052604060002090565b9060ff801983541691151516179055565b604051901515815233907f17307eab39ab6107e8899845ad3d59bd9653f200f220920489ca2b5937696c3190602090a3005b60405162461bcd60e51b815260206004820152601960248201527f4552433732313a20617070726f766520746f2063616c6c6572000000000000006044820152606490fd5b503461000e57602036600319011261000e5761036e610c5c6004356126c5565b6040519182916020835260208301906102dc565b60209067ffffffffffffffff8111610c8e575b601f01601f19160190565b610c9661095f565b610c83565b503461000e57608036600319011261000e57610cb561042a565b610cbd610440565b6064359167ffffffffffffffff831161000e573660238401121561000e57826004013591610cea83610c70565b92610cf8604051948561099f565b808452366024828701011161000e5760208160009260246104ae9801838801378501015260443591611601565b610140810192916000915b600a8310610d3d57505050565b600190825181526020809101920192019190610d30565b506000806003193601126103f657610d6a611e4a565b50662386f26fc1000034106107d357600a9081601354106107c157610d8d611e4a565b91815b818110610e005750503460011c8180808084734b2b0d5ee2857ff41b40e3820cdfac8a9ca60d9f5af1610dc1611981565b501561078457818080927397843608a00e2bbc75ab0c1911387e002565dede5af1610dea611981565b50156107845761036e9060405191829182610d25565b80610e106107a6610e1a93611ec7565b6107b68287611f10565b610d90565b503461000e57602036600319011261000e576004356000818152600260205260409020546001600160a01b03161515610e5790611f21565b610e6081612021565b6040516e426c6f636b4d6167696369616e202360881b602082015291908290602f8201610e8c91611f59565b0391601f19928381018252610ea1908261099f565b610eb5826000526014602052604060002090565b5460ff16610ec290610905565b5091610ed8816000526014602052604060002090565b5460ff16610ee5906105c2565b9054610ef79160031b1c60e81b6150bd565b6040517202a3434b99036b0b3b4b1b4b0b7103ab9b2b99606d1b60208201529384919060338301610f2791611f6c565b7f20626c6f636b206d61676963206f6620636f6c6f7220230000000000000000008152601701610f5691611f59565b7120746f206669676874204d6f6c6f6368212160701b8152601201038481018452610f81908461099f565b610f8a816122ac565b610f93906121c3565b90610fa8816000526014602052604060002090565b5460ff16610fb5906105c2565b9054610fc79160031b1c60e81b6150bd565b90610fdc816000526014602052604060002090565b5460ff16610fe990610905565b5090610ff49061149a565b611006906001600160a01b031661501f565b604051683d913730b6b2911d1160b91b60208201529586959193916029870161102e91611f59565b71111610113232b9b1b934b83a34b7b7111d1160711b815260120161105291611f59565b7f222c202261747472696275746573223a205b7b2274726169745f74797065223a8152742022636f6c6f72222c202276616c7565223a20222360581b602082015260350161109f91611f59565b7f227d2c7b2274726169745f74797065223a202270726f746f636f6c222c20227681526730b63ab2911d101160c11b60208201526028016110df91611f6c565b6d113eae96101137bbb732b9111d1160911b8152600e016110ff91611f59565b6c1116101134b6b0b3b2911d101160991b8152600d017f646174613a696d6167652f7376672b786d6c3b6261736536342c0000000000008152601a0161114491611f59565b61227d60f01b815260020103828101825261115f908261099f565b611168906121c3565b6040517f646174613a6170706c69636174696f6e2f6a736f6e3b6261736536342c000000602082015291908290603d82016111a291611f59565b0390810182526111b2908261099f565b60405161036e819282610301565b503461000e57600036600319011261000e57602060405166038d7ea4c680008152f35b503461000e57602036600319011261000e576004356000526014602052602060ff60406000205416604051908152f35b503461000e57600036600319011261000e5760206040517397843608a00e2bbc75ab0c1911387e002565dede8152f35b503461000e57604036600319011261000e57602060ff61129561126461042a565b61126c610440565b6001600160a01b0391821660009081526005865260408082209290931681526020919091522090565b54166040519015158152f35b506000806003193601126103f65766038d7ea4c6800034106107d357601354156107c1576112ce33611ab1565b903460011c8180808084734b2b0d5ee2857ff41b40e3820cdfac8a9ca60d9f5af16112f7611981565b501561078457818080927397843608a00e2bbc75ab0c1911387e002565dede5af1611320611981565b501561078457604051908152602090f35b503461000e57602036600319011261000e5761134b61042a565b6113536113f6565b6001600160a01b039081169081156113a257600654826001600160601b0360a01b821617600655167f8be0079c531659141344cd1fd0a4f28419497f9722a3daafe3b4186f6b6457e0600080a3005b60405162461bcd60e51b815260206004820152602660248201527f4f776e61626c653a206e6577206f776e657220697320746865207a65726f206160448201526564647265737360d01b6064820152608490fd5b6006546001600160a01b0316330361140a57565b606460405162461bcd60e51b815260206004820152602060248201527f4f776e61626c653a2063616c6c6572206973206e6f7420746865206f776e65726044820152fd5b1561145557565b60405162461bcd60e51b815260206004820152601860248201527f4552433732313a20696e76616c696420746f6b656e20494400000000000000006044820152606490fd5b6000908152600260205260409020546001600160a01b031661031281151561144e565b156114c457565b60405162461bcd60e51b815260206004820152603d60248201527f4552433732313a20617070726f76652063616c6c6572206973206e6f7420746f60448201527f6b656e206f776e6572206f7220617070726f76656420666f7220616c6c0000006064820152608490fd5b600081815260026020526040902054611552906001600160a01b0316151561144e565b6000908152600460205260409020546001600160a01b031690565b1561157457565b60405162461bcd60e51b815260206004820152602d60248201527f4552433732313a2063616c6c6572206973206e6f7420746f6b656e206f776e6560448201526c1c881bdc88185c1c1c9bdd9959609a1b6064820152608490fd5b604051906020820182811067ffffffffffffffff8211176115f4575b60405260008252565b6115fc61095f565b6115eb565b906116259392916116156105a1843361169c565b61162083838361176e565b6119b1565b1561162c57565b60405162461bcd60e51b81528061164560048201611649565b0390fd5b60809060208152603260208201527f4552433732313a207472616e7366657220746f206e6f6e20455243373231526560408201527131b2b4bb32b91034b6b83632b6b2b73a32b960711b60608201520190565b6001600160a01b03806116ae8461149a565b1692818316928484149485156116e4575b505083156116ce575b50505090565b6116da9192935061152f565b16143880806116c8565b60009081526005602090815260408083206001600160a01b03949094168352929052205460ff16935038806116bf565b1561171b57565b60405162461bcd60e51b815260206004820152602560248201527f4552433732313a207472616e736665722066726f6d20696e636f72726563742060448201526437bbb732b960d91b6064820152608490fd5b6117929061177b8461149a565b6001600160a01b0382811693909182168414611714565b83169283156118865761180561185f926117c4856117be6117b28a61149a565b6001600160a01b031690565b14611714565b6117eb6117db886000526004602052604060002090565b80546001600160a01b0319169055565b6001600160a01b0316600090815260036020526040902090565b80546000190190556001600160a01b038116600090815260036020526040902060018154019055611840856000526002602052604060002090565b80546001600160a01b0319166001600160a01b03909216919091179055565b7fddf252ad1be2c89b69c2b068fc378daa952ba7f163c4a11628f55a4df523b3ef600080a4565b60405162461bcd60e51b8152602060048201526024808201527f4552433732313a207472616e7366657220746f20746865207a65726f206164646044820152637265737360e01b6064820152608490fd5b600082815260046020526040902080546001600160a01b0319166001600160a01b0383161790556001600160a01b03806119108461149a565b169116907f8c5be1e5ebec7d5bd14f71427d1e84f3dd0314c0f7b2291e5b200ac8c7c3b925600080a4565b9081602091031261000e575161031281610238565b6001600160a01b039182168152911660208201526040810191909152608060608201819052610312929101906102dc565b3d156119ac573d9061199282610c70565b916119a0604051938461099f565b82523d6000602084013e565b606090565b92909190823b15611a6b576119e4926020926000604051809681958294630a85bd0160e11b9a8b85523360048601611950565b03926001600160a01b03165af160009181611a3b575b50611a2d57611a07611981565b80519081611a285760405162461bcd60e51b81528061164560048201611649565b602001fd5b6001600160e01b0319161490565b611a5d91925060203d8111611a64575b611a55818361099f565b81019061193b565b90386119fa565b503d611a4b565b50505050600190565b50634e487b7160e01b600052601160045260246000fd5b600019810191908211611a9a57565b611aa2611a74565b565b91908203918211611a9a57565b7fb7656808f0e04b4af7a20f7ef1caa7669f0d781f1ca4cba31a3ba467880766c9600160075401809281600755611ae88282611d39565b611b76600a6000194301438111611ba9575b604051611b4c81611b3e88602083019530903390408892606894929184526001600160601b0319809260601b16602085015260601b16603483015260488201520190565b03601f19810183528261099f565b51902060031a06611b67846000526014602052604060002090565b9060ff1660ff19825416179055565b611b81601354611a8b565b601355604080516001600160a01b039092168252602082019290925290819081015b0390a190565b611bb1611a74565b611afa565b81151580611ce1575b15611cab57611c0d917fb7656808f0e04b4af7a20f7ef1caa7669f0d781f1ca4cba31a3ba467880766c991611c75611c6160016007540195869485600755611c078686611d39565b43611aa4565b40604051611c5181611b3e886020830195309033908892606894929184526001600160601b0319809260601b16602085015260601b16603483015260488201520190565b51902060031a60ff600a91160690565b611b67846000526014602052604060002090565b611c88611c83601354611a8b565b601355565b604080516001600160a01b03909216825260208201929092529081908101611ba3565b60405162461bcd60e51b815260206004820152600e60248201526d1a5b9d985b1a59081bd9999cd95d60921b6044820152606490fd5b50610100821115611bbf565b15611cf457565b60405162461bcd60e51b815260206004820152601c60248201527f4552433732313a20746f6b656e20616c7265616479206d696e746564000000006044820152606490fd5b6001600160a01b038116908115611df257600083815260026020526040902054611dca9190611d74906001600160a01b031615155b15611ced565b600084815260026020526040902054611d97906001600160a01b03161515611d6e565b6001600160a01b038116600090815260036020526040902060018154019055611840846000526002602052604060002090565b60007fddf252ad1be2c89b69c2b068fc378daa952ba7f163c4a11628f55a4df523b3ef8180a4565b606460405162461bcd60e51b815260206004820152602060248201527f4552433732313a206d696e7420746f20746865207a65726f20616464726573736044820152fd5b60405190611e4382610976565b6060368337565b6040519061014080830183811067ffffffffffffffff821117611e70575b604052368337565b611e7861095f565b611e68565b600281901b91906001600160fe1b03811603611a9a57565b908160011b9180830460021490151715611a9a57565b6001906000198114611ebb570190565b611ec3611a74565b0190565b9060018201809211611a9a57565b9060028201809211611a9a57565b9060208201809211611a9a57565b906003811015611f03575b60051b0190565b611f0b6105ab565b611efc565b90600a811015611f035760051b0190565b15611f2857565b60405162461bcd60e51b81526020600482015260096024820152681b9bdd08195e1a5cdd60ba1b6044820152606490fd5b90611ec3602092828151948592016102b9565b600092918154611f7b81610925565b92600191808316908115611fd45750600114611f98575b50505050565b90919293945060005260209081600020906000915b858310611fc35750505050019038808080611f92565b805485840152918301918101611fad565b60ff1916845250505081151590910201915038808080611f92565b90611ff982610c70565b612006604051918261099f565b8281528092612017601f1991610c70565b0190602036910137565b806000917a184f03e93ff9f4daa797ed6e38ed64bf6a1f01000000000000000080821015612156575b506d04ee2d6d415b85acef810000000080831015612147575b50662386f26fc1000080831015612138575b506305f5e10080831015612129575b506127108083101561211a575b50606482101561210a575b600a80921015612100575b6001908160216120b8828701611fef565b95860101905b6120ca575b5050505090565b600019019083906f181899199a1a9b1b9c1cb0b131b232b360811b8282061a8353049182156120fb579190826120be565b6120c3565b91600101916120a7565b919060646002910491019161209c565b60049193920491019138612091565b60089193920491019138612084565b60109193920491019138612075565b60209193920491019138612063565b60409350810491503861204a565b6040519061217182610976565b604082527f6768696a6b6c6d6e6f707172737475767778797a303132333435363738392b2f6040837f4142434445464748494a4b4c4d4e4f505152535455565758595a61626364656660208201520152565b8051156122a3576121d2612164565b6121ee6121e96121e28451611ed5565b6003900490565b611e7d565b916122006121fb84611ee3565b611fef565b92835280815182019060208501935b8282106122515750505060039051068060011461224057600214612231575090565b603d60f81b6000199091015290565b50613d3d60f01b6001199091015290565b9091936004906003809401938451600190603f9082828260121c16880101518553828282600c1c16880101518386015382828260061c168801015160028601531685010151908201530193919061220f565b506103126115cf565b6122b5906126c5565b61031260a260405180937f3c73766720786d6c6e733d22687474703a2f2f7777772e77332e6f72672f323060208301527f30302f737667222076696577426f783d2230203020333030203430302220776960408301527f6474683d2233303022206865696768743d22343030222073686170652d72656e60608301527f646572696e673d2267656f6d6574726963507265636973696f6e223e00000000608083015261236b815180926020609c860191016102b9565b8101651e17b9bb339f60d11b609c82015203608281018452018261099f565b631e17b39f60e11b815260040190565b7f3c7061746820643d224d34302e323033203133352e3732326834392e3839336c8152731c971c9b9c90189918a419981719191a3d11179f60611b602082015260340190565b7f3c726563742077696474683d2236392e38353122206865696768743d2237222081527f72783d2230222072793d223022207472616e73666f726d3d227472616e736c616020820152743a329419981719191a1018991c171b99191491179f60591b604082015260550190565b7f3c726563742077696474683d22353022206865696768743d2238362e3732322281527f2072783d2230222072793d223022207472616e73666f726d3d226d617472697860208201527f283120302030202e373639333820302031393029222f3e000000000000000000604082015260570190565b6000805160206151f6833981519152815260008051602061521683398151915260208201527510181018101a171818181818901810189c1a9491179f60511b604082015260560190565b6000805160206151f6833981519152815260008051602061521683398151915260208201527f2030203020342e30303030312032302e3232342031383529222f3e00000000006040820152605b0190565b7f3c726563742077696474683d22313022206865696768743d22312e323337222081527f72783d2230222072793d223022207472616e73666f726d3d226d61747269782860208201527f312030203020342e30343038342033302e323234203132332e37323229222f3e604082015260600190565b6000805160206151f6833981519152815260008051602061521683398151915260208201527f2030203020342e3030303031203530203132332e37323229222f3e00000000006040820152605b0190565b6000805160206151f6833981519152815260008051602061521683398151915260208201527f2030203020342e30303030312036392e3531203132332e37323229222f3e00006040820152605e0190565b6000805160206151f6833981519152815260008051602061521683398151915260208201527f2030203020342e30303030312039302e3135203132332e37323229222f3e00006040820152605e0190565b6126d9816000526014602052604060002090565b5460ff166126e6906105c2565b90546126f89160031b1c60e81b6150bd565b61270c826000526014602052604060002090565b5460ff16612719906105c2565b905461272b9160031b1c60e81b6150bd565b91612740816000526014602052604060002090565b5460ff1661274d906105c2565b905461275f9160031b1c60e81b6150bd565b90612774816000526014602052604060002090565b5460ff16612781906105c2565b90546127939160031b1c60e81b6150bd565b6127a7826000526014602052604060002090565b5460ff166127b4906105c2565b90546127c69160031b1c60e81b6150bd565b916127db906000526014602052604060002090565b5460ff166127e8906105c2565b90546127fa9160031b1c60e81b6150bd565b926040519586956020870161285990603d907f3c726563742077696474683d2233303022206865696768743d2234303022207281527f783d2230222072793d2230222066696c6c3d2223666466666538222f3e00000060208201520190565b7f3c726563742077696474683d223622206865696768743d223230222072783d2281527f30222072793d223022207472616e73666f726d3d226d6174726978283120302060208201527f30202e34203134322033383229222066696c6c3d2223304132313245222f3e006040820152605f017f3c726563742077696474683d223622206865696768743d223230222072783d2281527f30222072793d223022207472616e73666f726d3d226d6174726978283120302060208201527f30202e34203135322033383229222066696c6c3d2223304132313245222f3e006040820152605f017f3c67207472616e73666f726d3d227472616e736c617465283135352033333629815261111f60f11b6020820152602201621e339f60e91b8152600301600080516020615256833981519152815260008051602061527683398151915260208201527f38362d2e353135353820302e353920302e39382030203029222066696c6c3d2260408201527f2330413231324522207374726f6b652d77696474683d2230222f3e00000000006060820152607b01600080516020615256833981519152815260008051602061527683398151915260208201527f32362d2e393620312e313020302e3320372e362031322e3829222066696c6c3d60408201527f222330413231324522207374726f6b652d77696474683d2230222f3e000000006060820152607c017f3c726563742077696474683d22342e313122206865696768743d223639222072815260008051602061527683398151915260208201527f373120302e31382d2e323820312e30382033312e3937202d32322e313129222060408201527f66696c6c3d222330413231324522207374726f6b652d77696474683d2230222f6060820152601f60f91b60808201526081017f3c656c6c697073652072783d223135222072793d22313522207472616e73666f81527f726d3d226d6174726978282e3436352030203020302e34342033342e3235202d60208201526d32342e3629222066696c6c3d222360901b6040820152604e01612b5e91611f59565b73111039ba3937b5b296bbb4b23a341e911811179f60611b81526014017f3c616e696d6174655472616e73666f726d206174747269627574654e616d653d81527f227472616e73666f726d2220747970653d22726f74617465222076616c75657360208201527f3d22303b303b202d34303b20303b203022206b657954696d65733d22303b203060408201527f2e35203b302e37353b302e383b203122206475723d223573222072657065617460608201527321b7bab73a1e9134b73232b334b734ba3291179f60611b6080820152609401612c399061238a565b612c429061238a565b600080516020615256833981519152815260008051602061527683398151915260208201527f3938303434202e31393638202d2e32323520312e3132303934203133362e3420604082015275199a1b1491103334b6361e911198209918992291179f60511b6060820152607601600080516020615256833981519152815260008051602061527683398151915260208201527f3938303434202e31393638202d2e32323520312e3132303934203133392e303560408201527f392033333329222066696c6c3d2223304132313245222f3e000000000000000060608201526078017f3c726563742077696474683d223622206865696768743d223230222072783d2281527f30222072793d223022207472616e73666f726d3d226d617472697828312e333360208201527f33333320302030202e33203134362033323529222066696c6c3d222330413231604082015264192291179f60d91b60608201526065016c3c706174682066696c6c3d222360981b8152600d01612dc291611f59565b7f2220643d226d313530203330322e35203420372e35682d387a6d2d3420372e3581526e341c3619101899341698993d11179f60891b6020820152602f017f3c656c6c697073652072783d223135222072793d223322207472616e73666f7281527f6d3d227472616e736c617465283135302033323229222066696c6c3d222300006020820152603e01612e5591611f59565b6211179f60e91b81526003017f3c7061746820643d224d3134362033323968386c372034682d32327a222066698152646c6c3d222360d81b6020820152602501612e9e91611f59565b6211179f60e91b81526003017f3c726563742077696474683d22333022206865696768743d223135222072783d81527f2230222072793d223022207472616e73666f726d3d226d617472697828332e3360208201527f3634343420302030202e313330313220302033383229222066696c6c3d2223636040820152671a309a9bb191179f60c11b60608201526068017f3c726563742077696474683d22333022206865696768743d223135222072783d81527f2230222072793d223022207472616e73666f726d3d226d617472697828332e3360208201527f3634343420302030202e3133303132203230302033383229222066696c6c3d2260408201526911b19a309a9bb191179f60b11b6060820152606a017f3c726563742077696474683d22333022206865696768743d2231352e3337312281527f2072783d2230222072793d223022207472616e73666f726d3d226d617472697860208201527f28332e333634343420302030202e31333031322039392e353333203337342e3760408201527419191491103334b6361e911198309918993291179f60591b60608201526075017f3c7061746820643d224d313339203333336832326c34203533682d33307a222081526666696c6c3d222360c81b602082015260270161308191611f59565b6211179f60e91b81526003017f3c726563742077696474683d22333022206865696768743d2231352e3337312281527f2072783d2230222072793d223022207472616e73666f726d3d226d617472697860208201527f28312e3733343420302030202e3133303132203133312e393834203338382922604082015270103334b6361e911198309918993291179f60791b60608201526071017f3c7061746820643d224d35362e373637203139302e373338632d31302e32313381527f2d2e3632312d32332e38393420362e3434362d32362e3838312031342e37373560208201527f6d3230362e3434332d33302e32353863392e34393720312e3432382031332e3560408201527f323220352e3937362031362e3030322031302e3634316d302d2e30303163342e60608201527f3933352d31362e3338342032362e37362d32362e3433332034352e3236382d3260808201527f302e3430394d37302e393134203133302e333734632d352e3539322d2e37372d60a08201527f31322e31383420342e32332d31332e33303420392e3833322d31302e3432362d60c08201527f322e3133342d32342e37393820352e3137362d32382e3434372031362e39352d60e08201527f382e3031372d372e3132362d31392e39392d382e3336352d32392e32362d352e6101008201527f373435222066696c6c3d226e6f6e6522207374726f6b653d222363346135376361012082015273111039ba3937b5b296bbb4b23a341e911911179f60611b610140820152610154017f3c672066696c6c3d222330613231326522207374796c653d227472616e73666f815273393696b7b934b3b4b71d1031b2b73a32b91d911f60611b60208201526034017f3c7061746820643d224d3130312e323038203231332e3834346839372e35383481527f6c2d382e3938382034332e38362d39382e39383720352e3530337a222f3e00006020820152603e017f3c7061746820643d224d3135302e323639203231382e3936682d2e3533386c2d81527f34382e35342d332e3833362e3234362d352e3033362e3332382d332e3939382e60208201527f3733382d342e32333720312e32332d332e34333720322e3231342d332e30333860408201527f20322e3832362d322e3435372e3239342d322e3135352d382e3534352d31392e60608201527f3832332e3239352d332e3733352d342e31373820332e3739362d312e3032203960808201527f2e3632342d312e36313820332e30377631312e3639396c2d2e35333120312e3860a08201527f31382d312e32333320332e3133322d312e343220312e3439332d322e3537362060c08201527f322e3530322e34333920362e3332362d312e33313620382e3239332d342e303360e08201527f3320332e3234382d32302e3935362d32322e3331322d362e3335352d342e30386101008201527f3620312e3834362d31322e36373520322e3031332d322e36313720322e3737326101208201527f2d322e32383920312e3030392d31372e30393420332e39312d352e37382e39336101408201527f372d31382e35343220312e3936372d362e31303920322e3938372d342e3430346101608201527f20332e33332d332e3033362031392e3537372d31322e30313420312e32342d336101808201527f2e37303820382e3932382d362e373720312e3332332d342e31393120372e34306101a08201527f332d332e363820382e3032332d382e30353820312e3630332d312e3338392d2e6101c08201527f3236372d312e3330322d312e3630332d322e31372d322e3034382d312e3132396101e08201527f2d342e3030372d312e3939372d342e3938362d322e3334342d332e3832392d316102008201527f2e3832332d332e37342d312e3832332d322e3538322d322e3737382d322e34396102208201527f332d342e30382d312e3333362d342e3836322d2e3632332d352e3033352e37316102408201527f322d342e34323720312e3333362d332e353620312e3630332d322e363920322e6102608201527f3232362d312e393120322e3331352d312e333920322e3034382d312e343736206102808201527f312e38372d312e35363220312e3432352d312e37333620312e3135372d322e356102a08201527f3138762d322e3235376c2d2e3533342d322e3235372d312e3333362d322e32356102c08201527f372d312e3639322d2e3836392d322e3430342d2e3630372d2e3434352d312e356102e08201527f363320312e3135382d312e35363320322e36372d2e323620332e3239352e35326103008201527f20332e32303620322e30383420322e39333820342e3432382e393820352e30336103208201527f352d2e383920362e3037372d322e383520352e3230392d322e31333720342e336103408201527f342e36323320332e31323620332e36353120322e37373820342e363320312e356103608201527f31392031332e3334322d2e33343620332e3432342d332e33333820352e3433316103808201527f2d312e37323668392e3734386c352e343320312e37323620332e34323520332e6103a08201527f3333382031332e3334312e33343620342e36332d312e353220332e3635322d326103c08201527f2e3737372e3632332d332e3132362d322e3133372d342e33342d322e38352d356103e08201527f2e3230392d2e38392d362e3037372e39382d352e30333520322e3933382d342e6104008201527f34323820332e3230362d322e30383320332e3239342d2e35323120322e3637316104208201527f2e323620312e31353820312e3536332d2e34343520312e3536332d322e3430346104408201527f2e3630372d312e3639322e3836392d312e33333620322e3235372d2e353334206104608201527f322e32353776322e3235376c312e31353720322e35313820312e34323520312e6104808201527f37333620312e383720312e35363220322e30343820312e34373620322e3331356104a08201527f20312e333920322e32323620312e393120312e36303320322e363920312e33336104c08201527f3620332e35362e37313220342e3432372d2e36323320352e3033352d312e33336104e08201527f3620342e3836322d322e34393320342e30382d322e35383220322e3737382d336105008201527f2e373420312e3832332d332e38323920312e3832332d342e39383620322e33346105208201527f342d342e30303720312e3939372d322e30343820312e3132392d312e363033206105408201527f322e31372d2e32363720312e33303220312e36303320312e333920382e3032336105608201527f20382e30353720372e34303320332e363820312e33323320342e313920382e396105808201527f323820362e37373120312e323420332e3730382031392e3537382031322e30316105a08201527f3420332e333320332e30333620322e39383620342e34303420312e39363720366105c08201527f2e3130392e3933372031382e35343220332e393120352e373820312e303120316105e08201527f372e30393420322e37373120322e323920322e30313320322e36313620312e386106008201527f34362031322e3637352d362e33353520342e3038362d32302e3935362032322e6106208201527f3331322d342e3033332d332e3234382d312e3331362d382e3239332e3433392d6106408201527f362e3332362d322e3537362d322e3530322d312e34322d312e3439332d312e326106608201527f33332d332e3133322d2e3533312d312e383138762d31312e3639396c2d312e366106808201527f31372d332e30372d312e3032312d392e3632342d342e3137382d332e3739362e6106a08201527f32393520332e3733352d382e3534352031392e3832332e32393420322e3135356106c08201527f20322e38323620322e34353720322e32313420332e30333820312e323320332e6106e08201527f3433372e37333820342e3233372e33323820332e3939382e32343620352e3033610700820152641b3d11179f60d91b610720820152610725017f3c616e696d6174655472616e73666f726d206174747269627574654e616d653d81527f227472616e73666f726d2220617474726962757465547970653d22584d4c222060208201527f747970653d227363616c65222076616c7565733d22313b312e30353b313b312260408201527f206b657954696d65733d22303b20302e38343b302e38383b203122206475723d60608201527f2235732220726570656174436f756e743d22696e646566696e697465222f3e006080820152609f017f3c616e696d617465206174747269627574654e616d653d2266696c6c2220766181527f6c7565733d22233061323132653b233061323132653b230000000000000000006020820152603701613d0f91611f59565b7f3b233061323132653b2330613231326522206b657954696d65733d22303b203081527f2e383b20302e38353b20302e39353b203122206475723d22357322207265706560208201527530ba21b7bab73a1e9134b73232b334b734ba3291179f60511b6040820152605601613d839061238a565b711e33903334b6361e9111b3323333329c111f60711b81526012016000805160206151d683398151915281527f207472616e73666f726d3d227472616e736c6174652835322e31353920323338602082015267171a991a9491179f60c11b60408201526048017f3c656c6c697073652072783d2234352e313138222072793d223635222074726181527f6e73666f726d3d226d6174726978282e363739393420302030202e343832342060208201526a18981810191a1b9491179f60a91b6040820152604b016000805160206151d683398151915281527f207472616e73666f726d3d226d6174726978282e363739393420302030202e3660208201527f36393133203135352e3038203235382e37353729222f3e00000000000000000060408201526057016000805160206151d683398151915281527f207472616e73666f726d3d226d6174726978282e353630343320302030202e3660208201527f36393133203139332e353637203233312e323929222f3e00000000000000000060408201526057016000805160206151d683398151915281527f207472616e73666f726d3d226d6174726978282e363739393420302030202e3660208201527f36393133203233302e393232203230362e363129222f3e0000000000000000006040820152605701613f729061238a565b7f3c672066696c6c3d222330613231326522207374726f6b653d2223306132313281527432911039ba3937b5b296bbb4b23a341e91171c111f60591b60208201526035017f3c7061746820643d224d33312e3531312037322e363337632d2e30333720352e81527f30363620342e39372031302e3131322031302e3131382031302e3131392d352e60208201527f31392d2e3036352d31302e31343820342e3931342d392e39373620392e39303460408201527f2d2e3430362d342e3339392d342e3737322d31302e3230332d31302e31392d3160608201527f302e30343720352e31312e3034362031302e3236392d342e3735392031302e3060808201527f34382d392e3937365a6d3233312e3335372d33392e353933632d2e303337203560a08201527f2e30363620342e39372031302e3131322031302e3131382031302e3131392d3560c08201527f2e31392d2e3036352d31302e31343820342e3931342d392e39373620392e393060e08201527f342d2e3430362d342e3339392d342e3737322d31302e3230332d31302e31392d6101008201527f31302e30343720352e31312e3034362031302e3236392d342e3735392031302e6101208201526c181a1c169c971c9b9b2d11179f60991b61014082015261014d017f3c7061746820643d224d32392e3935382033392e393537632d2e30333720352e81527f30363620342e39372031302e3131322031302e3131382031302e3131392d352e60208201527f31392d2e3036352d31302e31343820342e3931342d392e39373620392e39303460408201527f2d2e3430362d342e3339392d342e3737322d31302e3230332d31302e31392d3160608201527f302e30343720352e31312e3034362031302e3236392d342e3735392031302e3060808201527f34382d392e3937365a22207472616e73666f726d3d226d6174726978282e353160a08201527f30393720302030202e35333139332033342e373320362e35323729222f3e000060c082015260de017f3c7061746820643d224d32392e3935382033392e393537632d2e30333720352e81527f30363620342e39372031302e3131322031302e3131382031302e3131392d352e60208201527f31392d2e3036352d31302e31343820342e3931342d392e39373620392e39303460408201527f2d2e3430362d342e3339392d342e3737322d31302e3230332d31302e31392d3160608201527f302e30343720352e31312e3034362031302e3236392d342e3735392031302e3060808201527f34382d392e3937365a22207472616e73666f726d3d226d6174726978282e353160a08201527f30393720302030202e3533313933203235332e3831392038352e39383929222f60c0820152601f60f91b60e082015260e1016143739061238a565b7f3c67207472616e73666f726d3d227472616e736c61746528302031323029222081526e3334b6361e9111983099189932911f60891b6020820152602f016143ba9061239a565b6143c3906123e0565b6143cc9061244d565b6143d5906124c2565b6143de9061250c565b6143e79061255d565b6143f0906125d2565b6143f990612623565b61440290612674565b61440b9061238a565b7f3c67207472616e73666f726d3d226d6174726978282d3120302030203120333081527f302e3037352031323029222066696c6c3d2223306132313265223e00000000006020820152603b016144609061239a565b614469906123e0565b6144729061244d565b61447b906124c2565b6144849061250c565b61448d9061255d565b614496906125d2565b61449f90612623565b6144a890612674565b6144b19061238a565b7f3c67207374796c653d227472616e73666f726d2d6f726967696e3a2063656e7481526432b91d911f60d91b60208201526025017f3c7061746820643d226d3133372e3233352038372e30392e342d2e34382e353881527f2d2e30322e342e35322e343420342e32342e303820312e372d2e33382e35342d60208201527f2e38322e30362d2e39362d312e32367a6d32352e3339342d2e3034362d2e342d60408201527f2e34382d2e35382d2e30322d2e342e35322d2e343420342e32342d2e3038203160608201527f2e372e33382e35342e38322e30362e39362d312e32367a222066696c6c3d22236080820152683331b333329a91179f60b91b60a082015260a9017f3c7061746820643d226d3136312e3230362037342e3935312d362e353533203481527f2e31373720312e313820312e383820312e36322e363820312e38342d2e34203160208201527f2e33382d312e32382e36382d312e367a6d2d32322e343132203020362e35353360408201527f20342e3137372d312e313820312e38382d312e36322e36382d312e38342d2e3460608201527f2d312e33382d312e32382d2e36382d312e367a222066696c6c3d2223633461356080820152631bb1911f60e11b60a082015260a4017f3c616e696d617465206174747269627574654e616d653d226f7061636974792281527f2076616c7565733d22313b313b303b3022206b657954696d65733d22303b302e60208201527f383b302e39393b3122206475723d2235732220726570656174436f756e743d2260408201526c34b73232b334b734ba3291179f60991b6060820152606d01661e17b830ba341f60c91b8152600701621e339f60e91b81526003017f3c7061746820643d224d3134352e3130323132352c37382e3939313234336c2d81527f362e33303538312d342e3031353337392d2e3032343931312c312e323230353560208201527f386c342e3135393836342c322e3436363032372d332e3730373736372e35333960408201527f3231312e3633393634332e3836373938316c312e3634343739362d2e3238393360608201527f32326c312e3337303636342d2e3236333032356c312e3330393734352d2e323160808201527f303431362e3931333737362d2e3331353633355a22207472616e73666f726d3d60a08201527f226d617472697828312030203020312e31353830333320302e3030303030312d60c08201527f31322e33313131393929222066696c6c3d222363356134376322207374726f6b60e08201526e3296bbb4b23a341e9118171c11179f60891b61010082015261010f017f3c7061746820643d224d3134352e3130323132352c37382e3939313234336c2d81527f362e33303538312d342e3031353337392d2e3032343931312c312e323230353560208201527f386c342e3135393836342c322e3436363032372d332e3730373736372e35333960408201527f3231312e3633393634332e3836373938316c312e3634343739362d2e3238393360608201527f32326c312e3337303636342d2e3236333032356c312e3330393734352d2e323160808201527f303431362e3931333737362d2e3331353633355a22207472616e73666f726d3d60a08201527f226d6174726978282d312030203020312e313538303333203239392e3933333960c08201527f37332d31312e39353131393929222066696c6c3d22236335613437632220737460e0820152713937b5b296bbb4b23a341e9118171c11179f60711b610100820152610112016149c49061238a565b711e33903334b6361e9111b331b333329a911f60711b81526012017f3c726563742077696474683d22323022206865696768743d22312e323636222081527f72783d2230222072793d223022207472616e73666f726d3d227472616e736c616020820152733a329418999c971c9b101c98971b1b1c1491179f60611b60408201526054016000805160206151b68339815191528152600080516020615196833981519152602082015260008051602061529683398151915260408201527118999c971a9b98901c9917199a1a9491179f60711b60608201526072016000805160206151b6833981519152815260008051602061519683398151915260208201527f6978282e3030383736202d322e3931333836202e3338303537202e303031313460408201527210189a18171c1b1b901c9a971a981b1491179f60691b60608201526073016000805160206151b68339815191528152600080516020615196833981519152602082015260008051602061523683398151915260408201527110189a1a17189a901c9a971c9c199491179f60711b60608201526072016000805160206151b68339815191528152600080516020615196833981519152602082015260008051602061523683398151915260408201527210189a9a171b991a901c9a971c9c199491179f60691b60608201526073016000805160206151b68339815191528152600080516020615196833981519152602082015260008051602061523683398151915260408201527210189a1b971a9c9a901c9a971c9c199491179f60691b60608201526073016000805160206151b68339815191528152600080516020615196833981519152602082015260008051602061523683398151915260408201527210189a9897181c9a101c9a971c9c199491179f60691b60608201526073016000805160206151b6833981519152815260008051602061519683398151915260208201527f6978282e3030383736202d322e3931333836202e3338303537202e303031313460408201527f203135382e30372039352e35353929222f3e3c726563742077696474683d223260608201527f2e30313322206865696768743d22322e333538222072783d2230222072793d2260808201527f3022207472616e73666f726d3d226d6174726978282e3838303539202d2e383760a08201527f343038202e3731353834202e3732313138203134322e3835312039322e33323560c0820152631491179f60e11b60e082015260e4016000805160206151b68339815191528152600080516020615196833981519152602082015260008051602061529683398151915260408201527f3134362e3531312039322e34303529222f3e3c726563742077696474683d223260608201527f2e30313322206865696768743d22322e333538222072783d2230222072793d2260808201527f3022207472616e73666f726d3d226d6174726978282e3838303539202d2e383760a08201527f343038202e3731353834202e3732313138203134392e3839312039322e34303560c0820152631491179f60e11b60e082015260e4016000805160206151b683398151915281526000805160206151968339815191526020820152600080516020615296833981519152604082015271189a9997199c98901c99171a1b1a9491179f60711b60608201526072016000805160206151b683398151915281526000805160206151968339815191526020820152600080516020615296833981519152604082015271189a9b171b9a98901c99171a1c1a9491179f60711b6060820152607201614ef39061238a565b7f3c616e696d6174655472616e73666f726d206174747269627574654e616d653d81527f227472616e73666f726d2220617474726962757465547970653d22584d4c222060208201527f747970653d227363616c65222076616c7565733d22313b312e313b313b31222060408201527f6b657954696d65733d22303b20302e38343b302e38383b203122206475723d2260608201527f35732220726570656174436f756e743d22696e646566696e697465222f3e00006080820152609e01614fba9061238a565b03601f1981018252610312908261099f565b602190805160011015614fdd570190565b611ec36105ab565b906020918051821015614ff757010190565b614fff6105ab565b010190565b8015615012575b6000190190565b61501a611a74565b61500b565b6040519061502c82610976565b602a825260306020830160403682378351156150b0575b53607861504f83614fcc565b536029905b6001821161506157505090565b80600f61509d921660108110156150a3575b6f181899199a1a9b1b9c1cb0b131b232b360811b901a6150938486614fe5565b5360041c91615004565b90615054565b6150ab6105ab565b615073565b6150b86105ab565b615043565b906040516040810181811067ffffffffffffffff821117615188575b604052600681526020368183013760005b600381106150f757509150565b61516990600f85821a818116916010918284101561517b575b6f181899199a1a9b1b9c1cb0b131b232b360811b9384901a61514261513c61513788611e95565b611ec7565b89614fe5565b5360041c169081101561516e575b1a61516361515d83611e95565b85614fe5565b53611eab565b6150ea565b6151766105ab565b615150565b6151836105ab565b615110565b61519061095f565b6150d956fe38222072783d2230222072793d223022207472616e73666f726d3d226d6174723c726563742077696474683d22322e30313322206865696768743d22322e33353c656c6c697073652072783d2234352e313138222072793d2234372e363937223c726563742077696474683d22313022206865696768743d22312e3235222072783d2230222072793d223022207472616e73666f726d3d226d617472697828316978282e3031303538202d332e3531393733202e3437333433202e30303134323c726563742077696474683d223622206865696768743d2231332e3132222072783d2230222072793d223022207472616e73666f726d3d226d6174726978282e6978282e3838303539202d2e3837343038202e3731353834202e373231313820a2646970667358221220a9eb717f7337ab88fd38594a752723e3e49e72fc304c7dafe7b8025363dae20364736f6c63430008110033290decd9548b62a8d60345a988386fc84ba6bc95484008f6362f93160ef3e563",
  "devdoc": {
    "kind": "dev",
    "methods": {
      "approve(address,uint256)": {
        "details": "See {IERC721-approve}."
      },
      "balanceOf(address)": {
        "details": "See {IERC721-balanceOf}."
      },
      "getApproved(uint256)": {
        "details": "See {IERC721-getApproved}."
      },
      "isApprovedForAll(address,address)": {
        "details": "See {IERC721-isApprovedForAll}."
      },
      "name()": {
        "details": "See {IERC721Metadata-name}."
      },
      "owner()": {
        "details": "Returns the address of the current owner."
      },
      "ownerOf(uint256)": {
        "details": "See {IERC721-ownerOf}."
      },
      "renounceOwnership()": {
        "details": "Leaves the contract without owner. It will not be possible to call `onlyOwner` functions. Can only be called by the current owner. NOTE: Renouncing ownership will leave the contract without an owner, thereby disabling any functionality that is only available to the owner."
      },
      "safeTransferFrom(address,address,uint256)": {
        "details": "See {IERC721-safeTransferFrom}."
      },
      "safeTransferFrom(address,address,uint256,bytes)": {
        "details": "See {IERC721-safeTransferFrom}."
      },
      "setApprovalForAll(address,bool)": {
        "details": "See {IERC721-setApprovalForAll}."
      },
      "supportsInterface(bytes4)": {
        "details": "See {IERC165-supportsInterface}."
      },
      "symbol()": {
        "details": "See {IERC721Metadata-symbol}."
      },
      "transferFrom(address,address,uint256)": {
        "details": "See {IERC721-transferFrom}."
      },
      "transferOwnership(address)": {
        "details": "Transfers ownership of the contract to a new account (`newOwner`). Can only be called by the current owner."
      }
    },
    "version": 1
  },
  "userdoc": {
    "kind": "user",
    "methods": {},
    "version": 1
  },
  "storageLayout": {
    "storage": [
      {
        "astId": 138,
        "contract": "contracts/BlockMagicians.sol:BlockMagicians",
        "label": "_name",
        "offset": 0,
        "slot": "0",
        "type": "t_string_storage"
      },
      {
        "astId": 140,
        "contract": "contracts/BlockMagicians.sol:BlockMagicians",
        "label": "_symbol",
        "offset": 0,
        "slot": "1",
        "type": "t_string_storage"
      },
      {
        "astId": 144,
        "contract": "contracts/BlockMagicians.sol:BlockMagicians",
        "label": "_owners",
        "offset": 0,
        "slot": "2",
        "type": "t_mapping(t_uint256,t_address)"
      },
      {
        "astId": 148,
        "contract": "contracts/BlockMagicians.sol:BlockMagicians",
        "label": "_balances",
        "offset": 0,
        "slot": "3",
        "type": "t_mapping(t_address,t_uint256)"
      },
      {
        "astId": 152,
        "contract": "contracts/BlockMagicians.sol:BlockMagicians",
        "label": "_tokenApprovals",
        "offset": 0,
        "slot": "4",
        "type": "t_mapping(t_uint256,t_address)"
      },
      {
        "astId": 158,
        "contract": "contracts/BlockMagicians.sol:BlockMagicians",
        "label": "_operatorApprovals",
        "offset": 0,
        "slot": "5",
        "type": "t_mapping(t_address,t_mapping(t_address,t_bool))"
      },
      {
        "astId": 7,
        "contract": "contracts/BlockMagicians.sol:BlockMagicians",
        "label": "_owner",
        "offset": 0,
        "slot": "6",
        "type": "t_address"
      },
      {
        "astId": 3006,
        "contract": "contracts/BlockMagicians.sol:BlockMagicians",
        "label": "_tokenIds",
        "offset": 0,
        "slot": "7",
        "type": "t_struct(Counter)1558_storage"
      },
      {
        "astId": 3036,
        "contract": "contracts/BlockMagicians.sol:BlockMagicians",
        "label": "protocols",
        "offset": 0,
        "slot": "8",
        "type": "t_array(t_string_storage)10_storage"
      },
      {
        "astId": 3081,
        "contract": "contracts/BlockMagicians.sol:BlockMagicians",
        "label": "protocolColor",
        "offset": 0,
        "slot": "18",
        "type": "t_array(t_bytes3)10_storage"
      },
      {
        "astId": 3084,
        "contract": "contracts/BlockMagicians.sol:BlockMagicians",
        "label": "molochHealth",
        "offset": 0,
        "slot": "19",
        "type": "t_uint256"
      },
      {
        "astId": 3088,
        "contract": "contracts/BlockMagicians.sol:BlockMagicians",
        "label": "protocolInfo",
        "offset": 0,
        "slot": "20",
        "type": "t_mapping(t_uint256,t_uint8)"
      }
    ],
    "types": {
      "t_address": {
        "encoding": "inplace",
        "label": "address",
        "numberOfBytes": "20"
      },
      "t_array(t_bytes3)10_storage": {
        "base": "t_bytes3",
        "encoding": "inplace",
        "label": "bytes3[10]",
        "numberOfBytes": "32"
      },
      "t_array(t_string_storage)10_storage": {
        "base": "t_string_storage",
        "encoding": "inplace",
        "label": "string[10]",
        "numberOfBytes": "320"
      },
      "t_bool": {
        "encoding": "inplace",
        "label": "bool",
        "numberOfBytes": "1"
      },
      "t_bytes3": {
        "encoding": "inplace",
        "label": "bytes3",
        "numberOfBytes": "3"
      },
      "t_mapping(t_address,t_bool)": {
        "encoding": "mapping",
        "key": "t_address",
        "label": "mapping(address => bool)",
        "numberOfBytes": "32",
        "value": "t_bool"
      },
      "t_mapping(t_address,t_mapping(t_address,t_bool))": {
        "encoding": "mapping",
        "key": "t_address",
        "label": "mapping(address => mapping(address => bool))",
        "numberOfBytes": "32",
        "value": "t_mapping(t_address,t_bool)"
      },
      "t_mapping(t_address,t_uint256)": {
        "encoding": "mapping",
        "key": "t_address",
        "label": "mapping(address => uint256)",
        "numberOfBytes": "32",
        "value": "t_uint256"
      },
      "t_mapping(t_uint256,t_address)": {
        "encoding": "mapping",
        "key": "t_uint256",
        "label": "mapping(uint256 => address)",
        "numberOfBytes": "32",
        "value": "t_address"
      },
      "t_mapping(t_uint256,t_uint8)": {
        "encoding": "mapping",
        "key": "t_uint256",
        "label": "mapping(uint256 => uint8)",
        "numberOfBytes": "32",
        "value": "t_uint8"
      },
      "t_string_storage": {
        "encoding": "bytes",
        "label": "string",
        "numberOfBytes": "32"
      },
      "t_struct(Counter)1558_storage": {
        "encoding": "inplace",
        "label": "struct Counters.Counter",
        "members": [
          {
            "astId": 1557,
            "contract": "contracts/BlockMagicians.sol:BlockMagicians",
            "label": "_value",
            "offset": 0,
            "slot": "0",
            "type": "t_uint256"
          }
        ],
        "numberOfBytes": "32"
      },
      "t_uint256": {
        "encoding": "inplace",
        "label": "uint256",
        "numberOfBytes": "32"
      },
      "t_uint8": {
        "encoding": "inplace",
        "label": "uint8",
        "numberOfBytes": "1"
      }
    }
  }
}